:020000040000FA
:1000000002EF00F0720ED36E926A89908992899401
:100010008996896A0CEF00F08980898289848986B3
:10002000150E50EC00F08990899289948996040EFF
:1000300050EC00F01CEF00F089808982150E50EC26
:1000400000F089908992040E50EC00F028EF00F047
:1000500089848986150E50EC00F089948996040EE7
:1000600050EC00F034EF00F0898089828984898621
:10007000150E50EC00F08990899289948996040EAF
:1000800050EC00F044EF00F089828984150E50ECAA
:1000900000F089928994040E50EC00F009EF00F012
:1000A000216E900E226E550E236E00000000232E4E
:1000B00055EF00F0222E53EF00F0212E51EF00F00B
:0200C00012002C
:0200C20000003C
:020000040030CA
:010001000BF3
:010003001EDE
:010006008178
:00000001FF
