:020000040000FA
:04000000FEEF3FF0E0
:100800000046656368613A253032642F25303264D2
:100810002F32302530326400486F72613A20253023
:1008200032643A253032643A2530326400436F6EC8
:0F0830006669677572616E646F205254430000F1
:10084000010E1A6E17BE27EF04F02AEF04F0010E16
:100850002BEF04F0000E1D6E5AC01BF05BC01CF0A5
:100860001D50D8B436EF04F038EF04F04FEF04F029
:100870001B06D8A01C061D50D8A441EF04F043EF7E
:1008800004F049EF04F0000E196E2B0E186E4DEFB8
:1008900004F0000E196E2D0E186E18C01DF0000E1B
:1008A0001F6E1F0E1E6E00017F6B83EF04F01E068D
:1008B000D8A01F061E50600FD96EDA6A16C001F06C
:1008C00017C002F0000E046E0A0E036EC9EC06F0AB
:1008D00001C007F002C008F04AEC0AF00750300FE0
:1008E000DF6E1A6A1B06D8A01C0616C001F017C0DE
:1008F00002F0000E046E0A0E036E68EC06F001C0F2
:1009000016F002C017F01FBE8EEF04F01F5008E172
:100910001E04D8A08EEF04F090EF04F0B5EF04F0C1
:1009200016501710D8A497EF04F099EF04F057EF82
:1009300004F01A50D8A49FEF04F0A1EF04F057EF91
:1009400004F01CBEACEF04F01C5008E11B04D8A05E
:10095000ACEF04F0AEEF04F0B5EF04F05EB2B3EF2D
:1009600004F0B5EF04F057EF04F01D50D8B4BBEF1E
:1009700004F0BDEF04F0C6EF04F01E06D8A01F0679
:100980001E50600FD96EDA6A1DC0DFFF15C00EF071
:100990001E50600F0F6E1BC010F01CC011F06BECEE
:1009A00008F012002150D96EDA6ADFCFF6FF080E88
:1009B000F76E0800F550250AD8A4E1EF04F0E3EF44
:1009C00004F06CEF05F02150D96EDA6ADF2A000ED0
:1009D0005B6E000E5A6E5AC05EF05C685D68276AF6
:1009E0000CEF05F05E822150D96EDA6ADF2A0CEF37
:1009F00005F0010E276E0CEF05F02150D96EDA6A72
:100A0000DFCFF6FF080EF76E0800F550300AD8B4B5
:100A1000F2EF04F0F9EF04F02750D8B412EF05F02C
:100A200014EF05F0FDEF04F021C001F022C002F048
:100A300075EC07F001C05AF002C05BF05BBE25EF19
:100A400005F023EF05F02AEF05F05E805A6C5B1E7F
:100A5000D8B05B2A2150D96EDA6ADF50286E28C0E0
:100A6000F6FF080EF76E0800F550640AD8B43BEFA5
:100A700005F03DEF05F04BEF05F028C0F6FF080E3E
:100A8000F76E0800F550690AD8A449EF05F04BEF5E
:100A900005F066EF05F02250D96EDA6A020EDF2605
:100AA000DF5CD96EDA6ADECF23F0DECF24F021508E
:100AB000D96EDA6A2828DF6E20C015F023C016F040
:100AC00024C017F020EC04F07DEF05F02150D96E22
:100AD000DA6ADF2A7DEF05F02150D96EDA6ADFCFBE
:100AE000F6FF080EF76E0800F550016E026A20C08E
:100AF00003F020EC07F066EF05F01200700ED31241
:100B0000D350FC0B0209D36E0F0EC16E64EC0AF0D9
:100B1000A0EC0AF0A00E0E6E860E0F6E010E106E87
:100B2000000E116E20EC09F0000E056E2D0E066E03
:100B30000650D8A4080E076E000EDDEC09F0B0ECEC
:100B400008F01E0E0E6E000E0F6E080E106E040ED4
:100B5000116E190E126E0E0EC7EC07F0A0EC0AF023
:100B6000540E0E6E550E0F6E560E106E570E116E01
:100B7000580E126E590E136EFBEC05F0430E2D6EDF
:100B8000010E2E6E57C02FF0306A58C031F0326A15
:100B900059C033F0346A30EC0AF0000E056E430E93
:100BA000066E076A000EDDEC09F0430E2D6E180E7E
:100BB0002E6E54C02FF0306A55C031F0326A56C0E4
:100BC00033F0346A30EC0AF0000E056E430E066E08
:100BD000076A010EDDEC09F00B0E426E260E416E27
:100BE0005E0EE82EFED7412EFCD7422EFAD7B0EF8C
:100BF00005F0FEEF3FF0C2EC0AF0000E0D6ED00ED5
:100C00000C6EB7EC0AF0000E0D6E000E0C6EB7EC19
:100C10000AF0C6EC0AF0000E0D6ED10E0C6EB7ECA9
:100C20000AF01050D96EDA6A000E036E010E026EE1
:100C300015EC0AF00250ACEC0AF0DF6E0F50D96EE2
:100C4000DA6A000E036E010E026E15EC0AF0025015
:100C5000ACEC0AF0DF6E0E50D96EDA6A000E036E4D
:100C6000010E026E15EC0AF00250ACEC0AF0DF6ED9
:100C7000000E036E010E026E15EC0AF01150D96ED3
:100C8000DA6A000E036E010E026E15EC0AF00250D5
:100C9000ACEC0AF0DF6E1250D96EDA6A000E036E09
:100CA000010E026E15EC0AF00250ACEC0AF0DF6E99
:100CB0001350D96EDA6A000E036E000E026E15EC48
:100CC0000AF00250ACEC0AF0DF6EBEEC0AF0120043
:100CD000066A04BE70EF06F06EEF06F076EF06F0DF
:100CE000036C041ED8B0042A010E066E02BE7DEF0E
:100CF00006F07BEF06F083EF06F0016C021ED8B021
:100D0000022A010E061A000E086E000E076E03502E
:100D10000410D8B48EEF06F090EF06F0B8EF06F0AE
:100D2000010E056E98EF06F0D89003360436052ABA
:100D300004AE9DEF06F09FEF06F094EF06F0D8901A
:100D4000073608360350015C04500258D8A0ABEFB8
:100D500006F0ADEF06F0B2EF06F00350015E04506E
:100D6000025A0780D89004320332052E9FEF06F016
:100D70000650D8B4BEEF06F0C0EF06F0C4EF06F0A0
:100D8000076C081ED8B0082A07C001F008C002F09E
:100D90001200066A02BED1EF06F0CFEF06F0D7EFE1
:100DA00006F0016C021ED8B0022A010E066E04BEC7
:100DB000DEEF06F0DCEF06F0E2EF06F0036C041E57
:100DC000D8B0042A03500410D8B4E9EF06F0EBEFD2
:100DD00006F00FEF07F0010E056EF3EF06F0D89066
:100DE00003360436052A04AEF8EF06F0FAEF06F0F3
:100DF000EFEF06F00350015C04500258D8A003EF57
:100E000007F005EF07F009EF07F00350015E04500B
:100E1000025AD89004320332052EFAEF06F006503B
:100E2000D8B415EF07F017EF07F01BEF07F0016CD0
:100E3000021ED8B0022A01C001F002C002F0120066
:100E40000350D8B426EF07F028EF07F030EF07F093
:100E50000350D8A42EEF07F030EF07F035EF07F07E
:100E60000150CAEC0AF074EF07F00350D96EDA6A49
:100E7000090ED926DE50DE10D8B441EF07F043EF5B
:100E800007F05CEF07F00350D96EDA6A090ED92635
:100E90000350E16EE26A020EE126DE50E65CE650A7
:100EA000800A086EDE50800A0858D8B05AEF07F062
:100EB0005CEF07F074EF07F00350D96EDA6A020EA8
:100EC000D926DF50046E0350D96EDA6ADF5004244D
:100ED000D96EDA6A01C0DFFF0350D96EDA6A020EFA
:100EE000D926DE2A000EDD221200000E076E000E4B
:100EF000066E0150D96EDA6ADFCFF6FF080EF76E84
:100F00000800F5502A0AD8A488EF07F08AEF07F006
:100F1000AFEF07F00150D96EDA6ADF2A0250D96EBE
:100F2000DA6A020EDF26DF5CD96EDA6ADECF06F0FF
:100F3000DECF07F0C2EF07F00A0E0602F3CF03F090
:100F4000F4CF04F00702F350042605500324066E84
:100F5000000E0420076E0150D96EDA6ADF2A0150B4
:100F6000D96EDA6ADFCFF6FF080EF76E0800F5508B
:100F7000D00F056E090E0564C0EF07F0C2EF07F051
:100F80009CEF07F006C001F007C002F01200146EDB
:100F90000F9EC2EC0AF0000E0D6ED00E0C6EB7EC78
:100FA0000AF0000E0D6E000E0C6EB7EC0AF00F503A
:100FB000FAEC09F0136E13500C6E0D6AB7EC0AF0E0
:100FC0000E50FAEC09F0136E13500C6E0D6AB7EC6C
:100FD0000AF01450FAEC09F0136E13500C6E0D6AFF
:100FE000B7EC0AF0010EFAEC09F0136E13500C6E18
:100FF0000D6AB7EC0AF01050FAEC09F0136E1350BA
:101000000C6E0D6AB7EC0AF01150FAEC09F0136E91
:1010100013500C6E0D6AB7EC0AF01250FAEC09F09E
:10102000136E13500C6E0D6AB7EC0AF0BEEC0AF0AA
:101030001200000E096E000E0A6E000E0B6E000EFE
:101040000C6E0550061007100810D8B42AEF08F0EF
:101050002CEF08F062EF08F0010E0D6E36EF08F08D
:10106000D89005360636073608360D2A08AE3BEF0F
:1010700008F03DEF08F030EF08F0D89009360A3656
:101080000B360C360550015C0650025807500358C9
:1010900008500458D8A04FEF08F051EF08F05AEF6D
:1010A00008F00550015E0650025A0750035A0850D6
:1010B000045A0980D89008320732063205320D2EC4
:1010C0003DEF08F009C001F00AC002F00BC003F0C8
:1010D0000CC004F012005EA070EF08F072EF08F090
:1010E00078EF08F00FC009F00EC00AF0BFEC09F06D
:1010F00011BE7FEF08F07DEF08F083EF08F0000EDF
:10110000116E000E106E000E146E000E136E93EF33
:1011100008F0000E026E200E016E0EC003F020ECEF
:1011200007F0134A142A1050135C1450800A126EF0
:101130001150800A1258D8A0A0EF08F0A2EF08F0D2
:1011400089EF08F05EB0A7EF08F0A9EF08F0AFEF65
:1011500008F00FC009F00EC00AF0BFEC09F0120051
:10116000C2EC0AF0000E0D6ED00E0C6EB7EC0AF059
:10117000000E0D6E000E0C6EB7EC0AF0C6EC0AF015
:10118000000E0D6ED10E0C6EB7EC0AF0000E036E61
:10119000000E026E15EC0AF002500F6EBEEC0AF063
:1011A0000FAED5EF08F0D7EF08F0F0EF08F0C2EC83
:1011B0000AF0000E0D6ED00E0C6EB7EC0AF0000EA9
:1011C0000D6E000E0C6EB7EC0AF00FC00EF07F0E25
:1011D0000E160E500C6E0D6AB7EC0AF0BEEC0AF05B
:1011E000120007EF09F003C0F6FF04C0F7FFF86A2A
:1011F000070EF76403D00800F55005D0F6CFE1FFE5
:10120000F7CFE2FFE7504CEC09F0034A042A03C091
:10121000F6FF04C0F7FFF86A070EF76403D0080072
:10122000F55005D0F6CFE1FFF7CFE2FFE750000918
:10123000D8A41DEF09F01FEF09F0F3EF08F012003A
:1012400093809382280EC66EC56A000E016E120E40
:10125000026E7A0E036E000E046E0EC012F00FC006
:1012600013F010C014F011C015F0020ED890123611
:10127000133614361536E82E36EF09F012C005F095
:1012800013C006F014C007F015C008F019EC08F000
:101290000104C86EC76A1200026E02C001F0F00EAF
:1012A00001168C500F0B01108C6E8C808C8400000A
:1012B0008C94030E016E980EE82EFED7012EFCD7FB
:1012C00002C001F0013AF00E0116F00E01168C502A
:1012D0000F0B01108C6E8C8400008C94080E016E34
:1012E000CA0EE82EFED7012EFCD71200026E02C0F5
:1012F00001F0F00E01168C500F0B01108C6E8C90CB
:101300008C8400008C94030E016E980EE82EFED79C
:10131000012EFCD702C001F0013AF00E0116F00ECA
:1013200001168C500F0B01108C6E8C8400008C9475
:10133000080E016ECA0EE82EFED7012EFCD7120051
:101340002AC02CF0ACEF09F029C020F02C0E216E41
:101350002BC022F0D2EC04F02CC0F6FF080EF76E82
:101360000800F5500009D8A4B8EF09F0BAEF09F069
:10137000A4EF09F0000E2A6E000E296E1200000E76
:101380000D6E000E0C6ECEEF09F00BC001F0026A7C
:101390000AC003F020EC07F00C4A0D2A09500C2477
:1013A000D96EDA6ADF500B6E0B50D8A4DAEF09F071
:1013B000DCEF09F0C5EF09F01200086E0850D8A460
:1013C000E4EF09F0E6EF09F0ECEF09F005500F0B40
:1013D0008009096EF0EF09F005500F0BC009096E86
:1013E000095076EC09F006C003F007C004F0F1ECF8
:1013F00008F012000B6E0BC001F0026A000E046EC2
:101400000A0E036EC9EC06F001C009F002C00AF032
:101410000BC001F0026A000E046E0A0E036E68EC47
:1014200006F00138F00B091012007DEC0AF0C586B9
:101430007DEC0AF0C9CF04F0056A7DEC0AF0025099
:101440000310D8B426EF0AF029EF0AF0C58A2AEF74
:101450000AF0C59AC58804C002F005C003F0120066
:101460002F0E356E2DC036F0000E396E000E386E20
:10147000000E406E000E3F6E360E296E2EC02AF012
:10148000350E2B6EA0EC09F02D503824D96EDA6A97
:10149000DF6A120008BE4FEF0AF051EF0AF057EF73
:1014A0000AF007C007F008C008F063EF0AF007C0B1
:1014B00009F008C00AF0091E0A1E094A0A2A09C0D2
:1014C00007F00AC008F01200956A270E036EF50EA9
:1014D000E82EFED7032EFCD70000020E76EC09F0B2
:1014E000280E76EC09F0010E76EC09F00C0E76EC85
:1014F00009F0060E76EC09F01200C5CF01F01F0EC0
:101500000116D8A486EF0AF088EF0AF07DEF0AF002
:10151000C7B48DEF0AF08FEF0AF07DEF0AF01200EA
:1015200000EE60F0200EEE6AE806FDE15E6A5D6A9C
:101530005C6A5B6A5A6A000EF86E00017EEF05F085
:10154000010E76EC09F0060E036E300EE82EFED783
:10155000032EFCD700D01200026E02C001F00F0E65
:10156000011602380F0B0A0DF350012412007DEC16
:101570000AF00CC0C9FF7DEC0AF012007DEC0AF005
:10158000C58412007DEC0AF0C58012007DEC0AF0E3
:06159000C58212001200EA
:047FFC0090EF0AF008
:020000040020DA
:08000000FFFFFFFFFFFFFFFF00
:020000040030CA
:0E00000000091F1EFF0181FF0FC00FE00F401F
:00000001FF
