:020000040000FA
:0400000007EF00F016
:0A0008004F8263ED0AF0E8EF10F0FC
:100800000046656368613A20253032752F25303205
:10081000752F2530327500486F72613A20253032CD
:10082000753A253032753A25303275005369737444
:10083000656D6120656E2070617573610053697329
:1008400074656D612061637469766F004D49435230
:100850004F434F4E54524F4C0054656D703A202513
:0D086000752043006170616761646F0000E6
:10086E003B50800B446E3B503B24466E3AAE42EFFB
:10087E0004F044EF04F045EF04F046804650D8B43F
:10088E004BEF04F04DEF04F061EF04F04628D8A4CE
:10089E0053EF04F055EF04F05DEF04F0000E386EE8
:1008AE00000E396E000E3A6E000E3B6E3A8E3B6AAB
:1008BE0069EF04F0000E386E000E396E000E3A6EBF
:1008CE00000E3B6E3F50800B456E44504518D8B419
:1008DE0073EF04F075EF04F076EF04F0448C3F50A4
:1008EE003F24456E3EAE7EEF04F080EF04F081EFC4
:1008FE0004F045804550D8B487EF04F089EF04F03A
:10090E009DEF04F04528D8A48FEF04F091EF04F08A
:10091E0099EF04F0000E3C6E000E3D6E000E3E6E22
:10092E00000E3F6E3E8E3F6AA5EF04F0000E3C6E49
:10093E00000E3D6E000E3E6E000E3F6E4650455C44
:10094E00D8B0ACEF04F0AEEF04F0D5EF04F044AC49
:10095E00B3EF04F0B5EF04F0B7EF04F0800E441AD5
:10096E0046C047F045C046F047C045F038C047F096
:10097E003CC038F047C03CF039C047F03DC039F0BC
:10098E0047C03DF03AC047F03EC03AF047C03EF097
:10099E003BC047F03FC03BF047C03FF0476A465070
:1009AE0045C040F0416A405E000E415A41BEE9EF3B
:1009BE0004F0415009E11A0E405CD8A0E9EF04F0B2
:1009CE00EBEF04F022EF05F0385039103A103B10DF
:1009DE00D8A4F4EF04F0F7EF04F0010EF8EF04F0F2
:1009EE00000E476E000E386E000E396E000E3A6E17
:1009FE00000E3B6E45C046F02BEF05F047A00AEF08
:100A0E0005F00CEF05F012EF05F0D8904730010914
:100A1E00476E14EF05F0D890473238A019EF05F065
:100A2E001BEF05F01CEF05F0478E3B343B323A329C
:100A3E0039323832462A4550465CD8A029EF05F0A7
:100A4E002BEF05F005EF05F044BC30EF05F032EF6B
:100A5E0005F072EF05F04650D8A438EF05F03AEFE6
:100A6E0005F044EF05F0000E386E000E396E000EE4
:100A7E003A6E000E3B6E91EF06F03C5038263D501C
:100A8E0039223E503A223F503B223BA051EF05F017
:100A9E0053EF05F0FFEF05F047A058EF05F05AEFC2
:100AAE0005F060EF05F0D89047300109476E62EF10
:100ABE0005F0D890473238A067EF05F069EF05F0E2
:100ACE006AEF05F0478E3B343B323A3239323832D8
:100ADE00462AFFEF05F03C50385C3D5039583E50E9
:100AEE003A583B50800A406E3F50800A4058D8B06A
:100AFE0083EF05F085EF05F0B0EF05F038503C5C64
:100B0E00406E39503D58416E3A503E58426E3B5001
:100B1E003F58436EFF0E4024386EFF0E4120396E53
:100B2E00FF0E42203A6EFF0E43203B6E800E441A9B
:100B3E00476C4750D8A4A6EF05F0A8EF05F0B8EF24
:100B4E0005F0010E3826000E39223A223B22B8EF6C
:100B5E0005F03C50385E3D50395A3E503A5A3F509F
:100B6E003B5A385039103A103B10D8A4C1EF05F05B
:100B7E00C3EF05F0F8EF05F04750D8A4C9EF05F024
:100B8E00CBEF05F0F8EF05F0000E386E000E396E63
:100B9E00000E3A6E000E3B6E91EF06F0D89038368E
:100BAE0039363A363B3647AEDFEF05F0E1EF05F06A
:100BBE00E2EF05F0388047A0E7EF05F0E9EF05F02A
:100BCE00EDEF05F0D8804736EFEF05F0D8904736B9
:100BDE004650D8B4F5EF05F0F7EF05F0F8EF05F055
:100BEE0046063AAEFDEF05F0FFEF05F0D5EF05F046
:100BFE00456A47AE05EF06F007EF06F01FEF06F069
:100C0E0047C040F07F0E4016D8B410EF06F012EF3A
:100C1E0006F016EF06F0010E456E1FEF06F038A037
:100C2E001BEF06F01DEF06F01FEF06F012EF06F0B9
:100C3E004550D8B425EF06F027EF06F052EF06F038
:100C4E00010E3826000E39223A223B223BA032EF0B
:100C5E0006F034EF06F052EF06F038C040F039C01F
:100C6E0041F03AC042F03BC043F04334433242328B
:100C7E004132403240C038F041C039F042C03AF003
:100C8E0043C03BF04628D8B44FEF06F051EF06F0C4
:100C9E0052EF06F0462A4628D8B458EF06F05AEF1F
:100CAE0006F062EF06F04650D8A460EF06F062EF51
:100CBE0006F073EF06F0000E386E000E396E000E61
:100CCE003A6E000E3B6E4650D8A470EF06F072EFEF
:100CDE0006F073EF06F0446A46A078EF06F07AEF5E
:100CEE0006F07DEF06F03A8E7EEF06F03A9ED89033
:100CFE0046303B6E44AE86EF06F088EF06F089EF85
:100D0E0006F03B8E38C038F039C039F03AC03AF0B0
:100D1E003BC03BF012002250800B2F6E225022243B
:100D2E00366E21AE9DEF06F09FEF06F0A0EF06F0B7
:100D3E0036803650D8B4A6EF06F0A8EF06F0BCEF1A
:100D4E0006F03628D8A4AEEF06F0B0EF06F0B8EFF6
:100D5E0006F0000E1F6E000E206E000E216E000EAD
:100D6E00226E218E226AC4EF06F0000E1F6E000E58
:100D7E00206E000E216E000E226E2650800B2F1A52
:100D8E0026502624376E25AECFEF06F0D1EF06F0B3
:100D9E00D2EF06F037803750D8B4D8EF06F0DAEF3E
:100DAE0006F0EEEF06F03728D8A4E0EF06F0E2EFFB
:100DBE0006F0EAEF06F0000E236E000E246E000E13
:100DCE00256E000E266E258E266AF6EF06F0000EB4
:100DDE00236E000E246E000E256E000E266E23501E
:100DEE00241025102610D8A4FFEF06F001EF07F00F
:100DFE0019EF07F0000E1F6E000E206E000E216E12
:100E0E00000E226E800E21127F0E22122F50221201
:100E1E001FC01FF020C020F021C021F022C022F000
:100E2E0059EF08F03650D8A41FEF07F021EF07F066
:100E3E002BEF07F0000E1F6E000E206E000E216EBF
:100E4E00000E226E59EF08F0375036C027F0286A90
:100E5E00275E000E285A7F0E2724306E000E2820A3
:100E6E00316E1FC02BF020C02CF021C02DF022C0FF
:100E7E002EF0000E1F6E000E206E000E216E000E64
:100E8E00226E000E326E000E336E000E346E000EA9
:100E9E00356E376A8BEF07F03750D8B459EF07F03D
:100EAE005BEF07F072EF07F0D8902B362C362D360D
:100EBE002E36D8901F3620362136223635AE6AEFC2
:100ECE0007F06CEF07F06DEF07F01F80D890323609
:100EDE0033363436353623502B5C24502C5825505F
:100EEE002D5826502E58D8A07FEF07F081EF07F02F
:100EFE008AEF07F0358C23502B5E24502C5A255048
:100F0E002D5A26502E5A372A190E376491EF07F0B4
:100F1E0093EF07F053EF07F02B502C102D102E10DF
:100F2E00D8B49CEF07F09EEF07F0B6EF07F03280D3
:100F3E00B6EF07F0D8901F3620362136223635AE62
:100F4E00ABEF07F0ADEF07F0AEEF07F01F80D890D4
:100F5E0032363336343635363006D8A0310621AE29
:100F6E00BBEF07F0BDEF07F0A1EF07F0376A35AE24
:100F7E00C3EF07F0C5EF07F0E9EF07F0FF0E3214ED
:100F8E00276EFF0E3314286EFF0E3414296E7F0E5B
:100F9E0035142A6E2750281029102A10D8B4DAEFEB
:100FAE0007F0DCEF07F0E0EF07F0010E376EE9EF28
:100FBE0007F01FA0E5EF07F0E7EF07F0E9EF07F006
:100FCE00DCEF07F03750D8B4EFEF07F0F1EF07F092
:100FDE0015EF08F0010E1F26000E202221222222DC
:100FEE0022A0FCEF07F0FEEF07F015EF08F01FC090
:100FFE0027F020C028F021C029F022C02AF02A3480
:10100E002A3229322832273227C01FF028C020F07A
:10101E0029C021F02AC022F0304A312A31BE20EFF9
:10102E0008F0315008E13028D8A020EF08F022EF68
:10103E0008F02DEF08F0000E316E3068000E1F6EB6
:10104E00000E206E000E216E000E226E31BE3AEFA3
:10105E0008F0315006E13004D8B038EF08F03AEF1E
:10106E0008F047EF08F0000E316E000E306E000EE5
:10107E001F6E000E206E000E216E000E226E2F6A65
:10108E0030C036F036A04EEF08F050EF08F053EFB8
:10109E0008F0218E54EF08F0219ED8903630226E43
:1010AE000DEF07F01200196E1950D8B461EF08F069
:1010BE0063EF08F085EF08F014BE6AEF08F068EFF2
:1010CE0008F085EF08F011C015F012C016F013C02D
:1010DE0017F014C018F0151E161E171E181E152A0E
:1010EE00000E16221722182215C01BF016C01CF077
:1010FE0017C01DF018C01EF08DEF08F011C01BF0C8
:10110E0012C01CF013C01DF014C01EF011501210AE
:10111E0013101410D8A496EF08F098EF08F0A2EF71
:10112E0008F0000E116E000E126E000E136E000E01
:10113E00146E33EF09F0960E1A6EACEF08F01A2A01
:10114E00D8901E321D321C321B32000E1B14156E2F
:10115E00000E1C14166E000E1D14176EFE0E1E14BD
:10116E00186E1550161017101810D8A4C1EF08F0ED
:10117E00C3EF08F0A6EF08F0D1EF08F01A2A010E1F
:10118E001B26000E1C221D221E22D8901E321D323E
:10119E001C321B32000E1B14156E000E1C14166E24
:1011AE00000E1D14176EFF0E1E14186E155016101D
:1011BE0017101810D8A4E6EF08F0E8EF08F0C5EF06
:1011CE0008F0F0EF08F01A06D8901B361C361D36C4
:1011DE001E361DBEF5EF08F0F7EF08F0FFEF08F032
:1011EE00020E1A60FDEF08F0FFEF08F0EAEF08F0CC
:1011FE001AB004EF09F006EF09F007EF09F01D9E93
:10120E00D8901A321AC015F0166A176A186A15C0E5
:10121E0018F0176A166A156A15501B1216501C1212
:10122E0017501D1218501E121950D8B421EF09F084
:10123E0023EF09F02BEF09F014BE2AEF09F028EF87
:10124E0009F02BEF09F01E8E1BC011F01CC012F01E
:10125E001DC013F01EC014F012002E50D96EDA6AA3
:10126E00DFCFF6FF080EF76E0800F550250AD8A45A
:10127E0043EF09F045EF09F0CEEF09F02E50D96E8D
:10128E00DA6ADF2A000E496E000E486E48C04CF036
:10129E004A684B68346A6EEF09F04C822E50D96E54
:1012AE00DA6ADF2A6EEF09F0010E346E6EEF09F086
:1012BE002E50D96EDA6ADFCFF6FF080EF76E0800F1
:1012CE00F550300AD8B454EF09F05BEF09F0345002
:1012DE00D8B474EF09F076EF09F05FEF09F02EC085
:1012EE0011F02FC012F00DEC0DF011C048F012C02D
:1012FE0049F049BE87EF09F085EF09F08CEF09F050
:10130E004C80486C491ED8B0492A2E50D96EDA6AE4
:10131E00DF50356E35C0F6FF080EF76E0800F5503B
:10132E00750AD8A49DEF09F09FEF09F0C8EF09F0F8
:10133E002F50D96EDA6A020EDF26DF5CD96EDA6ABA
:10134E00DECF30F0DECF31F02E50D96EDA6A35288E
:10135E00DF6EBCEF09F02DC025F030C026F031C095
:10136E0027F0DDEC0BF0DFEF09F035C0F6FF080ECD
:10137E00F76E0800F550750AD8B4B2EF09F0C8EF51
:10138E0009F02E50D96EDA6ADF2ADFEF09F02E50FF
:10139E00D96EDA6ADFCFF6FF080EF76E0800F55049
:1013AE00116E126A2DC013F0B8EC0CF0C8EF09F0F4
:1013BE001200133414341A6E1A50D8A4E9EF09F03F
:1013CE00EBEF09F0F5EF09F0000E116E000E126E44
:1013DE00000E136E000E146E62EF0AF011C015F0BF
:1013EE0012C016F013C017F014C018F0200E05EF3F
:1013FE000AF0D8901832173216321532E82E00EF56
:10140E000AF01550196E138EFF0E1116FF0E1216DE
:10141E00FF0E1316000E1416960E1A5E1ABE1CEF51
:10142E000AF01AEF0AF032EF0AF01A50800A970FFC
:10143E00D8B024EF0AF026EF0AF028EF0AF0EBEF0F
:10144E0009F0D89014321332123211321A3E28EFAC
:10145E000AF04AEF0AF01F0E1A6438EF0AF03AEF5C
:10146E000AF042EF0AF0EBEF09F0D890113612367F
:10147E00133614361A061A50D8A448EF0AF04AEF5B
:10148E000AF03CEF0AF01950D8B450EF0AF052EFC0
:10149E000AF05AEF0AF0141E131E121E116C000EE3
:1014AE0012221322142211C011F012C012F013C016
:1014BE0013F014C014F012000600E9CF0AF0EACFC0
:1014CE000BF0F6CF0CF0F7CF0DF0F8CF0EF0F5CF06
:1014DE000FF09EAA75EF0AF077EF0AF0A8EF0AF068
:1014EE00AECF10F0ABA27EEF0AF080EF0AF083EFE2
:1014FE000AF0AB980000AB88310E1018D8A48AEF12
:10150E000AF08CEF0AF090EF0AF0010E4E6EA7EF84
:10151E000AF0300E1018D8A497EF0AF099EF0AF0DF
:10152E00A7EF0AF04E6A1AEC11F0000E056E2C0EA3
:10153E00066E0650D8A4080E076E000E63EC10F06F
:10154E009E9AF0A2ADEF0AF0AFEF0AF0D6EF0AF0D6
:10155E00010E4E1A4E50D8B4B7EF0AF0B9EF0AF09A
:10156E00C8EF0AF01AEC11F0000E056E3D0E066E75
:10157E000650D8A4080E076E000E63EC10F0D5EFDF
:10158E000AF01AEC11F0000E056E2C0E066E0650C7
:10159E00D8A4080E076E000E63EC10F0F0920FC088
:1015AE00F5FF0EC0F8FF0DC0F7FF0CC0F6FF0BC025
:1015BE00EAFF0AC0E9FF4F92110092908090340E1C
:1015CE00136EF20EE82EFED7132EFCD780801A0E65
:1015DE00E82EFED700D0928080B0F8EF0AF0FAEF36
:1015EE000AF062EF0BF0030E1D6EE80E1C6E01EF9B
:1015FE000BF000D080B006EF0BF008EF0BF015EFFC
:10160E000BF01C06D8A01D061C2806E11D28D8A428
:10161E0013EF0BF015EF0BF000EF0BF0030E1D6E3A
:10162E00E80E1C6E1CEF0BF000D080A021EF0BF02B
:10163E0023EF0BF030EF0BF01C06D8A01D061C2874
:10164E0006E11D28D8A42EEF0BF030EF0BF01BEFA8
:10165E000BF01E6A1E50170FD96EDA6AE0EC0FF00F
:10166E00DF6E1E2A040E1E643FEF0BF041EF0BF0EF
:10167E0031EF0BF01B50136E146A185017C015F093
:10168E00166A1526000E162219501526000E162261
:10169E001A501526000E16221350151807E1145075
:1016AE001618D8A45DEF0BF05FEF0BF062EF0BF0A6
:1016BE00195063EF0BF0FF0E1200B7EC10F0E0ECD8
:1016CE000FF0EEEC0DF0800E0001606F250E616FD5
:1016DE00000E626F000E636F5FEC0DF09384F18865
:1016EE00F092F088F28CF28E9D8AF288F292F19C42
:1016FE00000E156E4C0E166E1650D8A4080E176EF0
:10170E00000E46EC10F0150E0001956F4B0E946F07
:10171E00BE0EE82EFED7942FFCD7952FFAD70000D9
:10172E000EEC11F00B0E0001956F260E946F5D0EF0
:10173E00E82EFED7942FFCD7952FFAD700D04E5017
:10174E00D8B4ACEF0BF0AEEF0BF0CEEF0BF0D0EC5D
:10175E0010F00B0E0001956F260E946F5D0EE82EA5
:10176E00FED7942FFCD7952FFAD700D02FEC0EF082
:10177E001F0E0001956F710E946F1E0EE82EFED790
:10178E00942FFCD7952FFAD70000A6EF0BF0000E82
:10179E00156E640E166E1650D8A4080E176E000E37
:1017AE0046EC10F0A6EF0BF007EF00F0010E286EDE
:1017BE0048C029F049C02AF0000E2C6E1F0E2B6E69
:1017CE000001B56B11EF0CF02B06D8A02C062B5098
:1017DE00960FD96EDA6A26C011F027C012F0000EED
:1017EE00146E0A0E136EA8EC0EF01150300FDF6E51
:1017FE00286A2906D8A02A0626C011F027C012F0A2
:10180E00000E146E0A0E136E6EEC0EF011C026F062
:10181E0012C027F02B502C10D8B418EF0CF01AEF82
:10182E000CF03FEF0CF026502710D8A421EF0CF04F
:10183E0023EF0CF0EBEF0BF02850D8A429EF0CF0AF
:10184E002BEF0CF0EBEF0BF02ABE36EF0CF02A501C
:10185E0008E12904D8A036EF0CF038EF0CF03FEF7A
:10186E000CF04CB23DEF0CF03FEF0CF0EBEF0BF049
:10187E0025C01EF02B50960F1F6E29C020F02AC0D7
:10188E0021F0A9EC0DF012003CEC11F0000E136EDD
:10189E00D00E126E31EC11F0000E136E000E126EA1
:1018AE0031EC11F040EC11F0000E136ED10E126EF1
:1018BE0031EC11F01850D96EDA6A000E136E010E6B
:1018CE00126E9CEC10F0125026EC11F0DF6E1750D9
:1018DE00D96EDA6A000E136E010E126E9CEC10F0C9
:1018EE00125026EC11F0DF6E1650D96EDA6A000E29
:1018FE00136E010E126E9CEC10F0125026EC11F0CD
:10190E00DF6E000E136E010E126E9CEC10F019506D
:10191E00D96EDA6A000E136E010E126E9CEC10F088
:10192E00125026EC11F0DF6E1A50D96EDA6A000EE4
:10193E00136E010E126E9CEC10F0125026EC11F08C
:10194E00DF6E1B50D96EDA6A000E136E000E126E29
:10195E009CEC10F0125026EC11F0DF6E38EC11F00A
:10196E0012001350D8B4BEEF0CF0C0EF0CF0C8EF5D
:10197E000CF01350D8A4C6EF0CF0C8EF0CF0CDEF5E
:10198E000CF0115044EC11F00CEF0DF01350D96E19
:10199E00DA6A090ED926DE50DE10D8B4D9EF0CF073
:1019AE00DBEF0CF0F4EF0CF01350D96EDA6A090E7F
:1019BE00D9261350E16EE26A020EE126DE50E65C95
:1019CE00E650800A186EDE50800A1858D8B0F2EF32
:1019DE000CF0F4EF0CF00CEF0DF01350D96EDA6A38
:1019EE00020ED926DF50146E1350D96EDA6ADF500C
:1019FE001424D96EDA6A11C0DFFF1350D96EDA6A79
:101A0E00020ED926DE2A000EDD221200000E176EFF
:101A1E00000E166E1150D96EDA6ADFCFF6FF080E81
:101A2E00F76E0800F5502A0AD8A420EF0DF022EF29
:101A3E000DF047EF0DF01150D96EDA6ADF2A125011
:101A4E00D96EDA6A020EDF26DF5CD96EDA6ADECF75
:101A5E0016F0DECF17F05AEF0DF00A0E1602F3CF86
:101A6E0013F0F4CF14F01702F3501426155013246C
:101A7E00166E000E1420176E1150D96EDA6ADF2A18
:101A8E001150D96EDA6ADFCFF6FF080EF76E080036
:101A9E00F550D00F156E090E156458EF0DF05AEF74
:101AAE000DF034EF0DF016C011F017C012F0120049
:101ABE00949C948E60C011F061C012F062C013F05D
:101ACE0063C014F0010E5AEC08F011C023F012C0DE
:101ADE0024F013C025F014C026F0000E1F6E240E45
:101AEE00206EF40E216E470E226E92EC06F01FC091
:101AFE0038F020C039F021C03AF022C03BF0000E81
:101B0E003C6E000E3D6E800E3E6EBF0E3F6E37EC8D
:101B1E0004F038C064F039C065F03AC066F03BC0DE
:101B2E0067F064C011F065C012F066C013F067C0B4
:101B3E0014F0E0EC09F01150AF6E200EAC6E900E6A
:101B4E00AB6E12004CA0AEEF0DF0B0EF0DF0B6EF95
:101B5E000DF01FC019F01EC01AF028EC10F021BEB7
:101B6E00BDEF0DF0BBEF0DF0C1EF0DF0000E216ECD
:101B7E00000E206E000E246E000E236ED1EF0DF0BF
:101B8E00000E126E200E116E1EC013F0B8EC0CF08B
:101B9E00234A242A2050235C2450800A226E21508E
:101BAE00800A2258D8A0DEEF0DF0E0EF0DF0C7EF5F
:101BBE000DF04CB0E5EF0DF0E7EF0DF0EDEF0DF0A1
:101BCE001FC019F01EC01AF028EC10F012003CECE9
:101BDE0011F0000E136ED00E126E31EC11F0000EDD
:101BEE00136E000E126E31EC11F040EC11F0000E7F
:101BFE00136ED10E126E31EC11F0000E136E000E3C
:101C0E00126E9CEC10F01250176E38EC11F017AEED
:101C1E0013EF0EF015EF0EF02EEF0EF03CEC11F070
:101C2E00000E136ED00E126E31EC11F0000E136E0C
:101C3E00000E126E31EC11F017C016F07F0E161654
:101C4E001650126E136A31EC11F038EC11F01200CE
:101C5E008E0E166E8F0E176E900E186E910E196EEA
:101C6E00920E1A6E930E1B6E4BEC0CF07D0E3A6EAE
:101C7E00170E3B6E8EC03CF03D6A8FC03EF03F6A41
:101C8E0090C040F0416A80EC10F06C0E3A6E010E7E
:101C9E003B6E91C03CF03D6A92C03EF03F6A93C0ED
:101CAE0040F0416A80EC10F00EEC11F0000E156E53
:101CBE007D0E166E176A000E46EC10F0000E156EB5
:101CCE006C0E166E176A010E46EC10F01200000E26
:101CDE00176E000E166E13501410D8B479EF0EF066
:101CEE007BEF0EF0A3EF0EF0010E156E83EF0EF0EC
:101CFE00D89013361436152A14AE88EF0EF08AEFEC
:101D0E000EF07FEF0EF0D890163617361350115C8A
:101D1E0014501258D8A096EF0EF098EF0EF09DEFDB
:101D2E000EF01350115E1450125A1680D8901432C1
:101D3E001332152E8AEF0EF016C011F017C012F0E6
:101D4E00120013501410D8B4AFEF0EF0B1EF0EF026
:101D5E00D5EF0EF0010E156EB9EF0EF0D8901336CA
:101D6E001436152A14AEBEEF0EF0C0EF0EF0B5EF1E
:101D7E000EF01350115C14501258D8A0C9EF0EF08B
:101D8E00CBEF0EF0CFEF0EF01350115E1450125A2F
:101D9E00D89014321332152EC0EF0EF011C011F080
:101DAE0012C012F01200F0EF0EF013C0F6FF14C0C6
:101DBE00F7FFF86A070EF76403D00800F55005D058
:101DCE00F6CFE9FFF7CFEAFFEF5038EC0FF0134AEA
:101DDE00142A13C0F6FF14C0F7FFF86A070EF76453
:101DEE0003D00800F55005D0F6CFE9FFF7CFEAFF94
:101DFE00EF500009D8A406EF0FF008EF0FF0DCEF5C
:101E0E000EF012001FEF0FF003C0F6FF04C0F7FF35
:101E1E00F86A070EF76403D00800F55005D0F6CF28
:101E2E00E9FFF7CFEAFFEF508CEC0FF0034A042ADC
:101E3E0003C0F6FF04C0F7FFF86A070EF76403D07D
:101E4E000800F55005D0F6CFE9FFF7CFEAFFEF50C7
:101E5E000009D8A435EF0FF037EF0FF00BEF0FF0AE
:101E6E001200126E12C011F0F00E11168C500F0BE4
:101E7E0011108C6E8C808C8400008C94030E116E6D
:101E8E00980EE82EFED7112EFCD712C011F0113A83
:101E9E00F00E1116F00E11168C500F0B11108C6ED9
:101EAE008C8400008C94080E116ECA0EE82EFED79C
:101EBE00112EFCD71200126E12C011F0F00E111678
:101ECE008C500F0B11108C6E8C908C8400008C94A7
:101EDE00030E116E980EE82EFED7112EFCD712C0EF
:101EEE0011F0113AF00E1116F00E11168C500F0B58
:101EFE0011108C6E8C8400008C94080E116ECA0E1C
:101F0E00E82EFED7112EFCD71200026E02C001F091
:101F1E00F00E01168C500F0B01108C6E8C808C8481
:101F2E0000008C94030E016E980EE82EFED7012E43
:101F3E00FCD702C001F0013AF00E0116F00E0116A8
:101F4E008C500F0B01108C6E8C8400008C94080E3C
:101F5E00016ECA0EE82EFED7012EFCD71200026EBD
:101F6E0002C001F0F00E01168C500F0B01108C6E9A
:101F7E008C908C8400008C94030E016E980EE82ECB
:101F8E00FED7012EFCD702C001F0013AF00E011669
:101F9E00F00E01168C500F0B01108C6E8C8400000D
:101FAE008C94080E016ECA0EE82EFED7012EFCD7B9
:101FBE001200116A126A80A0E7EF0FF0E9EF0FF03E
:101FCE00E2EF0FF0210EE82EFED70000D89011366A
:101FDE0080A0F4EF0FF0F6EF0FF0F7EF0FF0118097
:101FEE0080B0FCEF0FF0FEEF0FF0F7EF0FF0122ABC
:101FFE00070E126405EF10F007EF10F0E2EF0FF08E
:10200E001150120037C039F015EF10F036C02DF018
:10201E00390E2E6E38C02FF034EC09F039C0F6FFB1
:10202E00080EF76E0800F5500009D8A421EF10F045
:10203E0023EF10F00DEF10F0000E376E000E366E1F
:10204E001200000E1D6E000E1C6E37EF10F01BC03E
:10205E0011F0126A1AC013F0B8EC0CF01C4A1D2ACB
:10206E0019501C24D96EDA6ADF501B6E1B50D8A48F
:10207E0043EF10F045EF10F02EEF10F01200186E37
:10208E001850D8A44DEF10F04FEF10F055EF10F0A0
:10209E0015500F0B8009196E59EF10F015500F0BDC
:1020AE00C009196E195062EC0FF016C013F017C06C
:1020BE0014F0DAEC0EF01200086E0850D8A46AEF95
:1020CE0010F06CEF10F072EF10F005500F0B80094E
:1020DE00096E76EF10F005500F0BC009096E09500E
:1020EE00B6EC0FF006C003F007C004F009EC0FF0D9
:1020FE0012003C0E0001606F3AC061F0000E646F7A
:10210E00000E636F000E6B6F000E6A6F610E366EFF
:10211E003BC037F0600E386E09EC10F03A500001FB
:10212E006325D96EDA6ADF6A1200FBEC10F0C58601
:10213E00FBEC10F0C9CF14F0156AFBEC10F0125046
:10214E001310D8B4ADEF10F0B0EF10F0C58AB1EFA8
:10215E0010F0C59AC58814C012F015C013F0120005
:10216E00956A270E136EF50EE82EFED7132EFCD7AA
:10217E000000020E62EC0FF0280E62EC0FF0010E62
:10218E0062EC0FF00C0E62EC0FF0060E62EC0FF02C
:10219E001200E4EC0AF000017C6F0EEC11F06C0EF4
:1021AE003A6E590E3B6E7CC03CF03D6A80EC10F0EE
:1021BE00000E156E6C0E166E176A000E46EC10F0C1
:1021CE00120000EE96F0200EEE6AE806FDE100EE3B
:1021DE0048F0070EEE6AE806FDE14F904F92000EB2
:1021EE00F86E000164EF0BF0C5CF11F01F0E111643
:1021FE00D8A404EF11F006EF11F0FBEF10F0C7B406
:10220E000BEF11F00DEF11F0FBEF10F01200010EBD
:10221E0062EC0FF0060E136E300EE82EFED7132E64
:10222E00FCD700D01200010EB6EC0FF0060E036EB6
:10223E00300EE82EFED7032EFCD700D01200126E01
:10224E0012C011F00F0E111612380F0B0A0DF350AB
:10225E0011241200FBEC10F012C0C9FFFBEC10F0C1
:10226E001200FBEC10F0C5841200FBEC10F0C580E0
:0C227E001200FBEC10F0C58212001200F0
:020000040020DA
:08000000FFFFFFFFFFFFFFFF00
:020000040030CA
:0E00000000091F1EFF0181FF0FC00FE00F401F
:00000001FF
