:020000040000FA
:04000000FEEF3FF0E0
:100800000046656368613A253032642F25303264D2
:100810002F32302530326400486F72613A20253023
:1008200032643A253032643A2530326400436F6EC8
:100830006669677572616E646F2052544300546537
:100840006D70657261747572613A004572726F7293
:0308500020000085
:10085400010E1A6E17BE31EF04F034EF04F0010EEE
:1008640035EF04F0000E1D6E5CC01BF05DC01CF083
:100874001D50D8B440EF04F042EF04F059EF04F0F7
:100884001B06D8A01C061D50D8A44BEF04F04DEF56
:1008940004F053EF04F0000E196E2B0E186E57EF90
:1008A40004F0000E196E2D0E186E18C01DF0000E07
:1008B4001F6E1F0E1E6E0001816B8DEF04F01E066D
:1008C400D8A01F061E50620FD96EDA6A16C001F056
:1008D40017C002F0000E046E0A0E036EB5EC07F0AA
:1008E40001C007F002C008F085EC0BF00750300F90
:1008F400DF6E1A6A1B06D8A01C0616C001F017C0CA
:1009040002F0000E046E0A0E036E54EC07F001C0F0
:1009140016F002C017F01FBE98EF04F01F5008E154
:100924001E04D8A098EF04F09AEF04F0BFEF04F08F
:1009340016501710D8A4A1EF04F0A3EF04F061EF50
:1009440004F01A50D8A4A9EF04F0ABEF04F061EF5F
:1009540004F01CBEB6EF04F01C5008E11B04D8A040
:10096400B6EF04F0B8EF04F0BFEF04F05EB2BDEFF1
:1009740004F0BFEF04F061EF04F01D50D8B4C5EFEC
:1009840004F0C7EF04F0D0EF04F01E06D8A01F0651
:100994001E50620FD96EDA6A1DC0DFFF15C00EF05B
:1009A4001E50620F0F6E1BC010F01CC011F057ECEC
:1009B40009F012002150D96EDA6ADFCFF6FF080E73
:1009C400F76E0800F550250AD8A4EBEF04F0EDEF1C
:1009D40004F077EF05F02150D96EDA6ADF2A000EB1
:1009E4005D6E000E5C6E5CC05EF000016069616962
:1009F400276A17EF05F05E822150D96EDA6ADF2A82
:100A040017EF05F0010E276E17EF05F02150D96E90
:100A1400DA6ADFCFF6FF080EF76E0800F550300AE9
:100A2400D8B4FDEF04F004EF05F02750D8B41DEF5F
:100A340005F01FEF05F008EF05F021C001F022C01A
:100A440002F061EC08F001C05CF002C05DF05DBE34
:100A540030EF05F02EEF05F035EF05F05E805C6CAD
:100A64005D1ED8B05D2A2150D96EDA6ADF50286E37
:100A740028C0F6FF080EF76E0800F550640AD8B4D3
:100A840046EF05F048EF05F056EF05F028C0F6FFF5
:100A9400080EF76E0800F550690AD8A454EF05F063
:100AA40056EF05F071EF05F02250D96EDA6A020EA6
:100AB400DF26DF5CD96EDA6ADECF23F0DECF24F0E6
:100AC4002150D96EDA6A2828DF6E20C015F023C0C1
:100AD40016F024C017F02AEC04F088EF05F021503A
:100AE400D96EDA6ADF2A88EF05F02150D96EDA6A06
:100AF400DFCFF6FF080EF76E0800F550016E026AAC
:100B040020C003F00CEC08F071EF05F01200929095
:100B14008090340E036EF20EE82EFED7032EFCD71F
:100B240080801A0EE82EFED700D0928080B09DEF10
:100B340005F09FEF05F007EF06F0030E0D6EE80ECB
:100B44000C6EA6EF05F000D080B0ABEF05F0ADEF72
:100B540005F0BAEF05F00C06D8A00D060C2806E146
:100B64000D28D8A4B8EF05F0BAEF05F0A5EF05F00D
:100B7400030E0D6EE80E0C6EC1EF05F000D080A0E0
:100B8400C6EF05F0C8EF05F0D5EF05F00C06D8A0C8
:100B94000D060C2806E10D28D8A4D3EF05F0D5EFF7
:100BA40005F0C0EF05F00E6A0E50070FD96EDA6A31
:100BB4008CEC0AF0DF6E0E2A040E0E64E4EF05F0EE
:100BC400E6EF05F0D6EF05F00B50036E046A08500B
:100BD40007C005F0066A0526000E06220950052600
:100BE400000E06220A500526000E062203500518A0
:100BF40007E104500618D8A402EF06F004EF06F04B
:100C040007EF06F0095008EF06F0FF0E1200700E11
:100C1400D312D350FC0B0209D36E0F0EC16E9FEC9E
:100C24000BF0D9EC0BF0A00E0E6E860E0F6E010EBB
:100C3400106E000E116E0CEC0AF0000E056E2D0EF7
:100C4400066E0650D8A4080E076E000E18EC0BF0C2
:100C54009CEC09F01E0E0E6E000E0F6E080E106E48
:100C6400040E116E190E126E0E0EB3EC08F0D9ECD0
:100C74000BF0540E0E6E550E0F6E560E106E570E70
:100C8400116E580E126E590E136E85EC06F0430E5B
:100C94002D6E010E2E6E57C02FF0306A58C031F001
:100CA400326A59C033F0346A6BEC0BF0000E056EF7
:100CB400430E066E076A000E18EC0BF0430E2D6E01
:100CC400180E2E6E54C02FF0306A55C031F0326ABF
:100CD40056C033F0346A6BEC0BF0000E056E430E15
:100CE400066E076A010E18EC0BF00B0E426E260E10
:100CF400416E5E0EE82EFED7412EFCD7422EFAD767
:100D04003BEF06F01200FBEC0BF0000E0D6ED00E64
:100D14000C6EF0EC0BF0000E0D6E000E0C6EF0EC91
:100D24000BF0FFEC0BF0000E0D6ED10E0C6EF0EC20
:100D34000BF01050D96EDA6A000E036E010E026ECB
:100D440050EC0BF00250E5EC0BF0DF6E0F50D96E57
:100D5400DA6A000E036E010E026E50EC0BF00250C4
:100D6400E5EC0BF0DF6E0E50D96EDA6A000E036EFE
:100D7400010E026E50EC0BF00250E5EC0BF0DF6E4E
:100D8400000E036E010E026E50EC0BF01150D96E82
:100D9400DA6A000E036E010E026E50EC0BF0025084
:100DA400E5EC0BF0DF6E1250D96EDA6A000E036EBA
:100DB400010E026E50EC0BF00250E5EC0BF0DF6E0E
:100DC4001350D96EDA6A000E036E000E026E50ECF8
:100DD4000BF00250E5EC0BF0DF6EF7EC0BF01200B9
:100DE400720ED36E92800F0EC16E070EB46E9FEC1E
:100DF4000BF0D9EC0BF0000E056E3E0E066E06509D
:100E0400D8A4080E076E000E18EC0BF089EC05F060
:100E1400176E1728D8B411EF07F013EF07F03AEF65
:100E240007F017C001F0026A000E046E0A0E036E8A
:100E340054EC07F00150300F116E17C001F0026A34
:100E4400000E046E0A0E036EB5EC07F00150300F6D
:100E5400126E200E136E430E146E156A000E056E8C
:100E6400110E066E076A010E18EC0BF045EF07F041
:100E7400000E056E4B0E066E0650D8A4080E076EC3
:100E8400010E18EC0BF0150E106E4B0E0F6EBE0E0D
:100E9400E82EFED70F2EFCD7102EFAD700D008EF7D
:100EA40007F01200066A04BE5CEF07F05AEF07F081
:100EB40062EF07F0036C041ED8B0042A010E066E1C
:100EC40002BE69EF07F067EF07F06FEF07F0016C00
:100ED400021ED8B0022A010E061A000E086E000E79
:100EE400076E03500410D8B47AEF07F07CEF07F0D4
:100EF400A4EF07F0010E056E84EF07F0D8900336D7
:100F04000436052A04AE89EF07F08BEF07F080EF73
:100F140007F0D890073608360350015C0450025895
:100F2400D8A097EF07F099EF07F09EEF07F0035072
:100F3400015E0450025A0780D89004320332052E11
:100F44008BEF07F00650D8B4AAEF07F0ACEF07F028
:100F5400B0EF07F0076C081ED8B0082A07C001F0EC
:100F640008C002F01200066A02BEBDEF07F0BBEF34
:100F740007F0C3EF07F0016C021ED8B0022A010E7D
:100F8400066E04BECAEF07F0C8EF07F0CEEF07F015
:100F9400036C041ED8B0042A03500410D8B4D5EF4F
:100FA40007F0D7EF07F0FBEF07F0010E056EDFEF58
:100FB40007F0D89003360436052A04AEE4EF07F0B0
:100FC400E6EF07F0DBEF07F00350015C0450025832
:100FD400D8A0EFEF07F0F1EF07F0F5EF07F00350BB
:100FE400015E0450025AD89004320332052EE6EF13
:100FF40007F00650D8B401EF08F003EF08F007EF4C
:1010040008F0016C021ED8B0022A01C001F002C02F
:1010140002F012000350D8B412EF08F014EF08F0F5
:101024001CEF08F00350D8A41AEF08F01CEF08F0E6
:1010340021EF08F0015003EC0CF060EF08F00350CE
:10104400D96EDA6A090ED926DE50DE10D8B42DEF37
:1010540008F02FEF08F048EF08F00350D96EDA6A71
:10106400090ED9260350E16EE26A020EE126DE5033
:10107400E65CE650800A086EDE50800A0858D8B054
:1010840046EF08F048EF08F060EF08F00350D96E1F
:10109400DA6A020ED926DF50046E0350D96EDA6A7A
:1010A400DF500424D96EDA6A01C0DFFF0350D96E21
:1010B400DA6A020ED926DE2A000EDD221200000EA4
:1010C400076E000E066E0150D96EDA6ADFCFF6FFA6
:1010D400080EF76E0800F5502A0AD8A474EF08F039
:1010E40076EF08F09BEF08F00150D96EDA6ADF2A38
:1010F4000250D96EDA6A020EDF26DF5CD96EDA6A34
:10110400DECF06F0DECF07F0AEEF08F00A0E0602DF
:10111400F3CF03F0F4CF04F00702F3500426055094
:101124000324066E000E0420076E0150D96EDA6A9D
:10113400DF2A0150D96EDA6ADFCFF6FF080EF76EA8
:101144000800F550D00F056E090E0564ACEF08F0E9
:10115400AEEF08F088EF08F006C001F007C002F017
:101164001200146E0F9EFBEC0BF0000E0D6ED00EF1
:101174000C6EF0EC0BF0000E0D6E000E0C6EF0EC2D
:101184000BF00F5035EC0BF0136E13500C6E0D6A10
:10119400F0EC0BF00E5035EC0BF0136E13500C6E9C
:1011A4000D6AF0EC0BF0145035EC0BF0136E135089
:1011B4000C6E0D6AF0EC0BF0010E35EC0BF0136EB7
:1011C40013500C6E0D6AF0EC0BF0105035EC0BF074
:1011D400136E13500C6E0D6AF0EC0BF0115035ECDD
:1011E4000BF0136E13500C6E0D6AF0EC0BF01250F2
:1011F40035EC0BF0136E13500C6E0D6AF0EC0BF023
:10120400F7EC0BF01200000E096E000E0A6E000ED1
:101214000B6E000E0C6E0550061007100810D8B4A3
:1012240016EF09F018EF09F04EEF09F0010E0D6EFC
:1012340022EF09F0D89005360636073608360D2A0F
:1012440008AE27EF09F029EF09F01CEF09F0D89058
:1012540009360A360B360C360550015C0650025826
:101264000750035808500458D8A03BEF09F03DEF4D
:1012740009F046EF09F00550015E0650025A075086
:10128400035A0850045A0980D890083207320632AB
:1012940005320D2E29EF09F009C001F00AC002F051
:1012A4000BC003F00CC004F012005EA05CEF09F068
:1012B4005EEF09F064EF09F00FC009F00EC00AF008
:1012C400FAEC0AF011BE6BEF09F069EF09F06FEF69
:1012D40009F0000E116E000E106E000E146E000E5A
:1012E400136E7FEF09F0000E026E200E016E0EC029
:1012F40003F00CEC08F0134A142A1050135C145039
:10130400800A126E1150800A1258D8A08CEF09F08E
:101314008EEF09F075EF09F05EB093EF09F095EFE9
:1013240009F09BEF09F00FC009F00EC00AF0FAECC7
:101334000AF01200FBEC0BF0000E0D6ED00E0C6EDA
:10134400F0EC0BF0000E0D6E000E0C6EF0EC0BF0DA
:10135400FFEC0BF0000E0D6ED10E0C6EF0EC0BF0EA
:10136400000E036E000E026E50EC0BF002500F6E76
:10137400F7EC0BF00FAEC1EF09F0C3EF09F0DCEFAF
:1013840009F0FBEC0BF0000E0D6ED00E0C6EF0ECC1
:101394000BF0000E0D6E000E0C6EF0EC0BF00FC097
:1013A4000EF07F0E0E160E500C6E0D6AF0EC0BF064
:1013B400F7EC0BF01200F3EF09F003C0F6FF04C0E2
:1013C400F7FFF86A070EF76403D00800F55005D05C
:1013D400F6CFE1FFF7CFE2FFE75038EC0AF0034A1B
:1013E400042A03C0F6FF04C0F7FFF86A070EF76487
:1013F40003D00800F55005D0F6CFE1FFF7CFE2FFA8
:10140400E7500009D8A409EF0AF00BEF0AF0DFEF68
:1014140009F0120093809382280EC66EC56A000EEE
:10142400016E120E026E7A0E036E000E046E0EC072
:1014340012F00FC013F010C014F011C015F0020E1A
:10144400D8901236133614361536E82E22EF0AF0E9
:1014540012C005F013C006F014C007F015C008F060
:1014640005EC09F00104C86EC76A1200026E02C0DE
:1014740001F0F00E01168C500F0B01108C6E8C8055
:101484008C8400008C94030E016E980EE82EFED717
:10149400012EFCD702C001F0013AF00E0116F00E45
:1014A40001168C500F0B01108C6E8C8400008C94F0
:1014B400080E016ECA0EE82EFED7012EFCD71200CC
:1014C400026E02C001F0F00E01168C500F0B0110D9
:1014D4008C6E8C908C8400008C94030E016E980E9C
:1014E400E82EFED7012EFCD702C001F0013AF00E1F
:1014F4000116F00E01168C500F0B01108C6E8C84AB
:1015040000008C94080E016ECA0EE82EFED7012E40
:10151400FCD71200016A026A80A093EF0AF095EFEB
:101524000AF08EEF0AF0210EE82EFED70000D890C4
:10153400013680A0A0EF0AF0A2EF0AF0A3EF0AF0B0
:10154400018080B0A8EF0AF0AAEF0AF0A3EF0AF036
:10155400022A070E0264B1EF0AF0B3EF0AF08EEF2D
:101564000AF001501200956A8C6A9FEC0BF09CEC17
:1015740009F0F2EC06F0150E5B6E4B0E5A6EBE0EC1
:10158400E82EFED75A2EFCD75B2EFAD700D009ECF2
:1015940006F01F0E5B6E710E5A6E1E0EE82EFED7FD
:1015A4005A2EFCD75B2EFAD700D0BBEF0AF0FEEF21
:1015B4003FF02AC02CF0E7EF0AF029C020F02C0EEF
:1015C400216E2BC022F0DCEC04F02CC0F6FF080ED8
:1015D400F76E0800F5500009D8A4F3EF0AF0F5EF10
:1015E4000AF0DFEF0AF0000E2A6E000E296E1200D8
:1015F400000E0D6E000E0C6E09EF0BF00BC001F027
:10160400026A0AC003F00CEC08F00C4A0D2A0950D7
:101614000C24D96EDA6ADF500B6E0B50D8A415EF88
:101624000BF017EF0BF000EF0BF01200086E0850F0
:10163400D8A41FEF0BF021EF0BF027EF0BF00550B0
:101644000F0B8009096E2BEF0BF005500F0BC0092F
:10165400096E095062EC0AF006C003F007C004F0FA
:10166400DDEC09F012000B6E0BC001F0026A000EF3
:10167400046E0A0E036EB5EC07F001C009F002C057
:101684000AF00BC001F0026A000E046E0A0E036E2B
:1016940054EC07F00138F00B09101200B8EC0BF011
:1016A400C586B8EC0BF0C9CF04F0056AB8EC0BF0B2
:1016B40002500310D8B461EF0BF064EF0BF0C58A4D
:1016C40065EF0BF0C59AC58804C002F005C003F0AD
:1016D40012002F0E356E2DC036F0000E396E000E3E
:1016E400386E000E406E000E3F6E360E296E2EC010
:1016F4002AF0350E2B6EDBEC0AF02D503824D96E0F
:10170400DA6ADF6A120008BE8AEF0BF08CEF0BF086
:1017140092EF0BF007C007F008C008F09EEF0BF043
:1017240007C009F008C00AF0091E0A1E094A0A2A5D
:1017340009C007F00AC008F01200956A270E036E6C
:10174400F50EE82EFED7032EFCD70000020E62EC45
:101754000AF0280E62EC0AF0010E62EC0AF00C0E9C
:1017640062EC0AF0060E62EC0AF01200C5CF01F03A
:101774001F0E0116D8A4C1EF0BF0C3EF0BF0B8EFA6
:101784000BF0C7B4C8EF0BF0CAEF0BF0B8EF0BF0D7
:10179400120000EE60F0220EEE6AE806FDE15E6AD9
:1017A4005D6A5C6A000EF86E0001B5EF0AF0010E86
:1017B40062EC0AF0060E036E300EE82EFED7032EFE
:1017C400FCD700D01200026E02C001F00F0E011609
:1017D40002380F0B0A0DF35001241200B8EC0BF081
:1017E4000CC0C9FFB8EC0BF01200B8EC0BF0C584C8
:1017F4001200B8EC0BF0C5801200B8EC0BF0C582F7
:0418040012001200BC
:047FFC00CBEF0BF0CC
:020000040020DA
:08000000FFFFFFFFFFFFFFFF00
:020000040030CA
:0E00000000091F1EFF0181FF0FC00FE00F401F
:00000001FF
