:020000040000FA
:04000000FEEF3FF0E0
:10080000004D4943524F434F4E54524F4C005745B1
:070810004C434F4D45000071
:10081800720ED36EF19ECAEC04F0000E046E0E0E3A
:10082800056E000E8FEC04F0C00E67EC04F0000EAD
:10083800046E010E056E000E8FEC04F0150E096EA5
:100848004B0E086EBE0EE82EFED7082EFCD7092EDA
:10085800FAD700D0F9EC04F00B0E096E260E086EDC
:100868005E0EE82EFED7082EFCD7092EFAD71BEF0E
:1008780004F0FEEF3FF0026E02C001F0F00E011628
:100888008C500F0B01108C6E8C808C8200008C9227
:10089800030E016E980EE82EFED7012EFCD702C07B
:1008A80001F0013AF00E01168C500F0B01108C6EFE
:1008B8008C8200008C92080E016ECA0EE82EFED7BC
:1008C800012EFCD71200026E02C001F0F00E0116D4
:1008D8008C500F0B01108C6E8C908C8200008C92C7
:1008E800030E016E980EE82EFED7012EFCD702C02B
:1008F80001F0013AF00E01168C500F0B01108C6EAE
:100908008C8200008C92080E016ECA0EE82EFED76B
:10091800012EFCD71200066E020E066096EF04F058
:1009280098EF04F0A1EF04F004500F0B8009076E54
:10093800075067EC04F0A8EF04F004500F0BC0094F
:10094800076E075067EC04F005C003F0E3EC04F011
:100958001200FA0EF66E090EF76E000EF86E00EE33
:1009680010F010EE05F00900F5CFEEFFE550E1506C
:10097800FAE10F6A0E6A0D6A0C6A0B6A0A6A000EBF
:10098800F86E080EF76E00010CEF04F0956A270E5A
:10099800036EF50EE82EFED7032EFCD70000020EDC
:1009A80067EC04F0280E67EC04F0010E67EC04F025
:1009B8000C0E67EC04F0060E67EC04F01200ECEF86
:1009C80004F003C0F6FF0800F5503FEC04F0032ADA
:1009D80003C0F6FF0800F5500009D8A4F6EF04F0AC
:1009E800F8EF04F0E5EF04F01200010E67EC04F0F4
:0709F8001200323032310021
:047FFC00ADEF04F0F1
:020000040020DA
:08000000FFFFFFFFFFFFFFFF00
:020000040030CA
:0E00000000091F1EFF0181FF0FC00FE00F401F
:00000001FF
